{
  "_format": "hh-sol-artifact-1",
  "contractName": "BuyMeACoffee",
  "sourceName": "contracts/BuyMeACoffee.sol",
  "abi": [
    {
      "inputs": [],
      "stateMutability": "nonpayable",
      "type": "constructor"
    },
    {
      "inputs": [],
      "name": "InsufficientFunds",
      "type": "error"
    },
    {
      "inputs": [],
      "name": "NotContractOwner",
      "type": "error"
    },
    {
      "anonymous": false,
      "inputs": [
        {
          "indexed": true,
          "internalType": "address",
          "name": "from",
          "type": "address"
        },
        {
          "indexed": false,
          "internalType": "uint256",
          "name": "timestamp",
          "type": "uint256"
        },
        {
          "indexed": false,
          "internalType": "string",
          "name": "name",
          "type": "string"
        },
        {
          "indexed": false,
          "internalType": "string",
          "name": "message",
          "type": "string"
        }
      ],
      "name": "NewMemo",
      "type": "event"
    },
    {
      "inputs": [
        {
          "internalType": "string",
          "name": "_name",
          "type": "string"
        },
        {
          "internalType": "string",
          "name": "_message",
          "type": "string"
        }
      ],
      "name": "buyCoffee",
      "outputs": [],
      "stateMutability": "payable",
      "type": "function"
    },
    {
      "inputs": [
        {
          "internalType": "address",
          "name": "_newOwner",
          "type": "address"
        }
      ],
      "name": "changeOwner",
      "outputs": [],
      "stateMutability": "nonpayable",
      "type": "function"
    },
    {
      "inputs": [],
      "name": "getMemos",
      "outputs": [
        {
          "components": [
            {
              "internalType": "address",
              "name": "from",
              "type": "address"
            },
            {
              "internalType": "uint256",
              "name": "timestamp",
              "type": "uint256"
            },
            {
              "internalType": "string",
              "name": "name",
              "type": "string"
            },
            {
              "internalType": "string",
              "name": "message",
              "type": "string"
            }
          ],
          "internalType": "struct BuyMeACoffee.Memo[]",
          "name": "",
          "type": "tuple[]"
        }
      ],
      "stateMutability": "view",
      "type": "function"
    },
    {
      "inputs": [],
      "name": "owner",
      "outputs": [
        {
          "internalType": "address payable",
          "name": "",
          "type": "address"
        }
      ],
      "stateMutability": "view",
      "type": "function"
    },
    {
      "inputs": [],
      "name": "withdrawTips",
      "outputs": [],
      "stateMutability": "nonpayable",
      "type": "function"
    }
  ],
  "bytecode": "0x608060405234801561001057600080fd5b5033600160006101000a81548173ffffffffffffffffffffffffffffffffffffffff021916908373ffffffffffffffffffffffffffffffffffffffff160217905550610c2c806100616000396000f3fe60806040526004361061004a5760003560e01c8063204206e11461004f5780633aaa74b21461006b578063865c5172146100825780638da5cb5b146100ad578063a6f9dae1146100d8575b600080fd5b610069600480360381019061006491906107ba565b610101565b005b34801561007757600080fd5b50610080610287565b005b34801561008e57600080fd5b506100976102e9565b6040516100a49190610a40565b60405180910390f35b3480156100b957600080fd5b506100c26104cc565b6040516100cf9190610a83565b60405180910390f35b3480156100e457600080fd5b506100ff60048036038101906100fa9190610aca565b6104f2565b005b66038d7ea4c68000341015610142576040517f356680b700000000000000000000000000000000000000000000000000000000815260040160405180910390fd5b600060405180608001604052803373ffffffffffffffffffffffffffffffffffffffff16815260200142815260200184815260200183815250908060018154018082558091505060019003906000526020600020906004020160009091909190915060008201518160000160006101000a81548173ffffffffffffffffffffffffffffffffffffffff021916908373ffffffffffffffffffffffffffffffffffffffff1602179055506020820151816001015560408201518160020190805190602001906102119291906105bd565b50606082015181600301908051906020019061022e9291906105bd565b5050503373ffffffffffffffffffffffffffffffffffffffff167fc56140e05f516509ae28110e0f72e17558a7561630dad2647c3ae87d986e365c42848460405161027b93929190610b50565b60405180910390a25050565b600160009054906101000a900473ffffffffffffffffffffffffffffffffffffffff1673ffffffffffffffffffffffffffffffffffffffff166108fc479081150290604051600060405180830381858888f193505050506102e757600080fd5b565b60606000805480602002602001604051908101604052809291908181526020016000905b828210156104c357838290600052602060002090600402016040518060800160405290816000820160009054906101000a900473ffffffffffffffffffffffffffffffffffffffff1673ffffffffffffffffffffffffffffffffffffffff1673ffffffffffffffffffffffffffffffffffffffff168152602001600182015481526020016002820180546103a090610bc4565b80601f01602080910402602001604051908101604052809291908181526020018280546103cc90610bc4565b80156104195780601f106103ee57610100808354040283529160200191610419565b820191906000526020600020905b8154815290600101906020018083116103fc57829003601f168201915b5050505050815260200160038201805461043290610bc4565b80601f016020809104026020016040519081016040528092919081815260200182805461045e90610bc4565b80156104ab5780601f10610480576101008083540402835291602001916104ab565b820191906000526020600020905b81548152906001019060200180831161048e57829003601f168201915b5050505050815250508152602001906001019061030d565b50505050905090565b600160009054906101000a900473ffffffffffffffffffffffffffffffffffffffff1681565b600160009054906101000a900473ffffffffffffffffffffffffffffffffffffffff1673ffffffffffffffffffffffffffffffffffffffff163373ffffffffffffffffffffffffffffffffffffffff1614610579576040517fbfcafd3700000000000000000000000000000000000000000000000000000000815260040160405180910390fd5b80600160006101000a81548173ffffffffffffffffffffffffffffffffffffffff021916908373ffffffffffffffffffffffffffffffffffffffff16021790555050565b8280546105c990610bc4565b90600052602060002090601f0160209004810192826105eb5760008555610632565b82601f1061060457805160ff1916838001178555610632565b82800160010185558215610632579182015b82811115610631578251825591602001919060010190610616565b5b50905061063f9190610643565b5090565b5b8082111561065c576000816000905550600101610644565b5090565b6000604051905090565b600080fd5b600080fd5b600080fd5b600080fd5b6000601f19601f8301169050919050565b7f4e487b7100000000000000000000000000000000000000000000000000000000600052604160045260246000fd5b6106c78261067e565b810181811067ffffffffffffffff821117156106e6576106e561068f565b5b80604052505050565b60006106f9610660565b905061070582826106be565b919050565b600067ffffffffffffffff8211156107255761072461068f565b5b61072e8261067e565b9050602081019050919050565b82818337600083830152505050565b600061075d6107588461070a565b6106ef565b90508281526020810184848401111561077957610778610679565b5b61078484828561073b565b509392505050565b600082601f8301126107a1576107a0610674565b5b81356107b184826020860161074a565b91505092915050565b600080604083850312156107d1576107d061066a565b5b600083013567ffffffffffffffff8111156107ef576107ee61066f565b5b6107fb8582860161078c565b925050602083013567ffffffffffffffff81111561081c5761081b61066f565b5b6108288582860161078c565b9150509250929050565b600081519050919050565b600082825260208201905092915050565b6000819050602082019050919050565b600073ffffffffffffffffffffffffffffffffffffffff82169050919050565b60006108898261085e565b9050919050565b6108998161087e565b82525050565b6000819050919050565b6108b28161089f565b82525050565b600081519050919050565b600082825260208201905092915050565b60005b838110156108f25780820151818401526020810190506108d7565b83811115610901576000848401525b50505050565b6000610912826108b8565b61091c81856108c3565b935061092c8185602086016108d4565b6109358161067e565b840191505092915050565b60006080830160008301516109586000860182610890565b50602083015161096b60208601826108a9565b50604083015184820360408601526109838282610907565b9150506060830151848203606086015261099d8282610907565b9150508091505092915050565b60006109b68383610940565b905092915050565b6000602082019050919050565b60006109d682610832565b6109e0818561083d565b9350836020820285016109f28561084e565b8060005b85811015610a2e5784840389528151610a0f85826109aa565b9450610a1a836109be565b925060208a019950506001810190506109f6565b50829750879550505050505092915050565b60006020820190508181036000830152610a5a81846109cb565b905092915050565b6000610a6d8261085e565b9050919050565b610a7d81610a62565b82525050565b6000602082019050610a986000830184610a74565b92915050565b610aa78161087e565b8114610ab257600080fd5b50565b600081359050610ac481610a9e565b92915050565b600060208284031215610ae057610adf61066a565b5b6000610aee84828501610ab5565b91505092915050565b610b008161089f565b82525050565b600082825260208201905092915050565b6000610b22826108b8565b610b2c8185610b06565b9350610b3c8185602086016108d4565b610b458161067e565b840191505092915050565b6000606082019050610b656000830186610af7565b8181036020830152610b778185610b17565b90508181036040830152610b8b8184610b17565b9050949350505050565b7f4e487b7100000000000000000000000000000000000000000000000000000000600052602260045260246000fd5b60006002820490506001821680610bdc57607f821691505b60208210811415610bf057610bef610b95565b5b5091905056fea2646970667358221220c7abc70463d0a1c41fbb21436125fdda75769142e4b78a149c60dab361131a1a64736f6c63430008090033",
  "linkReferences": {},
  "deployedLinkReferences": {}
}